{
  "contractName": "Credit",
  "abi": [
    {
      "constant": true,
      "inputs": [],
      "name": "bn",
      "outputs": [
        {
          "name": "",
          "type": "uint256"
        }
      ],
      "payable": false,
      "stateMutability": "view",
      "type": "function"
    },
    {
      "constant": true,
      "inputs": [
        {
          "name": "",
          "type": "address"
        }
      ],
      "name": "Entities",
      "outputs": [
        {
          "name": "addr",
          "type": "address"
        },
        {
          "name": "partytype",
          "type": "uint8"
        }
      ],
      "payable": false,
      "stateMutability": "view",
      "type": "function"
    },
    {
      "anonymous": false,
      "inputs": [
        {
          "indexed": true,
          "name": "_address",
          "type": "address"
        },
        {
          "indexed": false,
          "name": "identity",
          "type": "string"
        },
        {
          "indexed": false,
          "name": "name",
          "type": "string"
        },
        {
          "indexed": false,
          "name": "category",
          "type": "string"
        },
        {
          "indexed": false,
          "name": "price",
          "type": "uint256"
        }
      ],
      "name": "createRecord",
      "type": "event"
    },
    {
      "constant": false,
      "inputs": [
        {
          "name": "_party",
          "type": "address"
        },
        {
          "name": "_type",
          "type": "uint8"
        }
      ],
      "name": "registerParty",
      "outputs": [],
      "payable": false,
      "stateMutability": "nonpayable",
      "type": "function"
    },
    {
      "constant": false,
      "inputs": [
        {
          "name": "identity",
          "type": "string"
        },
        {
          "name": "name",
          "type": "string"
        },
        {
          "name": "category",
          "type": "string"
        },
        {
          "name": "price",
          "type": "uint256"
        }
      ],
      "name": "create",
      "outputs": [],
      "payable": false,
      "stateMutability": "nonpayable",
      "type": "function"
    },
    {
      "constant": true,
      "inputs": [],
      "name": "all",
      "outputs": [
        {
          "name": "",
          "type": "string"
        },
        {
          "name": "",
          "type": "string"
        },
        {
          "name": "",
          "type": "string"
        },
        {
          "name": "",
          "type": "uint256"
        }
      ],
      "payable": false,
      "stateMutability": "view",
      "type": "function"
    },
    {
      "constant": false,
      "inputs": [],
      "name": "setCurrentBlockNum",
      "outputs": [
        {
          "name": "",
          "type": "uint256"
        },
        {
          "name": "",
          "type": "bytes32"
        }
      ],
      "payable": true,
      "stateMutability": "payable",
      "type": "function"
    }
  ],
  "bytecode": "0x608060405234801561001057600080fd5b50610a41806100206000396000f300608060405260043610610078576000357c0100000000000000000000000000000000000000000000000000000000900463ffffffff16806310c4e8b01461007d57806336ef737d146101ec5780635db35acd14610217578063958531ce14610244578063a53efa8514610294578063fd2e3c8014610393575b600080fd5b34801561008957600080fd5b5061009261042b565b60405180806020018060200180602001858152602001848103845288818151815260200191508051906020019080838360005b838110156100e05780820151818401526020810190506100c5565b50505050905090810190601f16801561010d5780820380516001836020036101000a031916815260200191505b50848103835287818151815260200191508051906020019080838360005b8381101561014657808201518184015260208101905061012b565b50505050905090810190601f1680156101735780820380516001836020036101000a031916815260200191505b50848103825286818151815260200191508051906020019080838360005b838110156101ac578082015181840152602081019050610191565b50505050905090810190601f1680156101d95780820380516001836020036101000a031916815260200191505b5097505050505050505060405180910390f35b3480156101f857600080fd5b5061020161061d565b6040518082815260200191505060405180910390f35b61021f610623565b6040518083815260200182600019166000191681526020019250505060405180910390f35b34801561025057600080fd5b50610292600480360381019080803573ffffffffffffffffffffffffffffffffffffffff169060200190929190803560ff16906020019092919050505061064d565b005b3480156102a057600080fd5b50610391600480360381019080803590602001908201803590602001908080601f0160208091040260200160405190810160405280939291908181526020018383808284378201915050505050509192919290803590602001908201803590602001908080601f0160208091040260200160405190810160405280939291908181526020018383808284378201915050505050509192919290803590602001908201803590602001908080601f016020809104026020016040519081016040528093929190818152602001838380828437820191505050505050919291929080359060200190929190505050610738565b005b34801561039f57600080fd5b506103d4600480360381019080803573ffffffffffffffffffffffffffffffffffffffff16906020019092919050505061091f565b604051808373ffffffffffffffffffffffffffffffffffffffff1673ffffffffffffffffffffffffffffffffffffffff16815260200182600281111561041657fe5b60ff1681526020019250505060405180910390f35b60608060606000600160026003600454838054600181600116156101000203166002900480601f0160208091040260200160405190810160405280929190818152602001828054600181600116156101000203166002900480156104d05780601f106104a5576101008083540402835291602001916104d0565b820191906000526020600020905b8154815290600101906020018083116104b357829003601f168201915b50505050509350828054600181600116156101000203166002900480601f01602080910402602001604051908101604052809291908181526020018280546001816001161561010002031660029004801561056c5780601f106105415761010080835404028352916020019161056c565b820191906000526020600020905b81548152906001019060200180831161054f57829003601f168201915b50505050509250818054600181600116156101000203166002900480601f0160208091040260200160405190810160405280929190818152602001828054600181600116156101000203166002900480156106085780601f106105dd57610100808354040283529160200191610608565b820191906000526020600020905b8154815290600101906020018083116105eb57829003601f168201915b50505050509150935093509350935090919293565b60055481565b60008060014303600581905550600143034060068160001916905550600554600654915091509091565b60408051908101604052808373ffffffffffffffffffffffffffffffffffffffff16815260200182600281111561068057fe5b8152506000808473ffffffffffffffffffffffffffffffffffffffff1673ffffffffffffffffffffffffffffffffffffffff16815260200190815260200160002060008201518160000160006101000a81548173ffffffffffffffffffffffffffffffffffffffff021916908373ffffffffffffffffffffffffffffffffffffffff16021790555060208201518160000160146101000a81548160ff0219169083600281111561072c57fe5b02179055509050505050565b836001908051906020019061074e929190610970565b508260029080519060200190610765929190610970565b50816003908051906020019061077c929190610970565b50806004819055503373ffffffffffffffffffffffffffffffffffffffff167f9ca10586aa2395fe3888dcaff5c92b3546ed752023b6ba4763c85868e71020e68585858560405180806020018060200180602001858152602001848103845288818151815260200191508051906020019080838360005b8381101561080e5780820151818401526020810190506107f3565b50505050905090810190601f16801561083b5780820380516001836020036101000a031916815260200191505b50848103835287818151815260200191508051906020019080838360005b83811015610874578082015181840152602081019050610859565b50505050905090810190601f1680156108a15780820380516001836020036101000a031916815260200191505b50848103825286818151815260200191508051906020019080838360005b838110156108da5780820151818401526020810190506108bf565b50505050905090810190601f1680156109075780820380516001836020036101000a031916815260200191505b5097505050505050505060405180910390a250505050565b60006020528060005260406000206000915090508060000160009054906101000a900473ffffffffffffffffffffffffffffffffffffffff16908060000160149054906101000a900460ff16905082565b828054600181600116156101000203166002900490600052602060002090601f016020900481019282601f106109b157805160ff19168380011785556109df565b828001600101855582156109df579182015b828111156109de5782518255916020019190600101906109c3565b5b5090506109ec91906109f0565b5090565b610a1291905b80821115610a0e5760008160009055506001016109f6565b5090565b905600a165627a7a7230582024632f2cb5d106028d0ff70335f6a75773c1230fa7622549b2431e5ac0fae4bb0029",
  "source": "pragma solidity ^0.4.2;\n\ncontract Credit {\n\n  event createRecord(address indexed _address, string identity, string name, string category, uint price);\n   enum PartyType  { Patient, Provider, Payor }\n\n     struct Entity {\n        address addr;\n        PartyType partytype;\n    }\n     mapping (address => Entity) public Entities;\n\n  string a;\n  string b;\n  string c;\n  uint256 d;\n  uint public bn;\n  bytes32 hs;\n\n  function registerParty(address _party, PartyType _type)\n        public{\n            Entities[_party] = Entity(_party,_type);\n        }\n\n      modifier onlyByPatient()\n    {\n        require(Entities[msg.sender].addr != address(0x0));\n        require(Entities[msg.sender].partytype == PartyType.Patient);\n        _;\n    }\n      modifier onlyByProvider()\n    {\n        require(Entities[msg.sender].addr != address(0x0));\n        require(Entities[msg.sender].partytype == PartyType.Provider);\n        _;\n    }\n\n    modifier onlyByInsuranceAgent()\n    {\n        require(Entities[msg.sender].addr != address(0x0));\n        require(Entities[msg.sender].partytype == PartyType.Payor);\n        _;\n    }\n\n\n    function create(string identity, string name, string category, uint256 price) public\n  {\n      a = identity;\n      b = name;\n      c = category;\n      d = price;\n      emit createRecord(msg.sender, identity, name, category, price);\n  }\n\n    function all() constant public returns (string, string, string, uint){\n      return(a, b, c, d);\n  }\n    function setCurrentBlockNum() payable public returns(uint256,bytes32) {\n        bn = block.number - 1;\n        hs = blockhash(block.number-1);\n        return (bn,hs);\n    }\n\n}\n",
  "sourcePath": "/Volumes/develop/playground/react/truffle/contracts/Credit.sol",
  "compiler": {
    "name": "solc",
    "version": "0.4.24+commit.e67f0147.Emscripten.clang"
  },
  "schemaVersion": "2.0.0",
  "updatedAt": "2018-06-06T12:37:28.019Z"
}