{
  "contractName": "Credit",
  "abi": [
    {
      "constant": true,
      "inputs": [],
      "name": "bn",
      "outputs": [
        {
          "name": "",
          "type": "uint256"
        }
      ],
      "payable": false,
      "stateMutability": "view",
      "type": "function"
    },
    {
      "anonymous": false,
      "inputs": [
        {
          "indexed": true,
          "name": "_address",
          "type": "address"
        },
        {
          "indexed": false,
          "name": "identity",
          "type": "string"
        },
        {
          "indexed": false,
          "name": "name",
          "type": "string"
        },
        {
          "indexed": false,
          "name": "category",
          "type": "string"
        },
        {
          "indexed": false,
          "name": "price",
          "type": "uint256"
        }
      ],
      "name": "createRecord",
      "type": "event"
    },
    {
      "constant": false,
      "inputs": [
        {
          "name": "identity",
          "type": "string"
        },
        {
          "name": "name",
          "type": "string"
        },
        {
          "name": "category",
          "type": "string"
        },
        {
          "name": "price",
          "type": "uint256"
        }
      ],
      "name": "create",
      "outputs": [],
      "payable": false,
      "stateMutability": "nonpayable",
      "type": "function"
    },
    {
      "constant": true,
      "inputs": [],
      "name": "all",
      "outputs": [
        {
          "name": "",
          "type": "string"
        },
        {
          "name": "",
          "type": "string"
        },
        {
          "name": "",
          "type": "string"
        },
        {
          "name": "",
          "type": "uint256"
        }
      ],
      "payable": false,
      "stateMutability": "view",
      "type": "function"
    },
    {
      "constant": false,
      "inputs": [],
      "name": "setCurrentBlockNum",
      "outputs": [
        {
          "name": "",
          "type": "uint256"
        },
        {
          "name": "",
          "type": "bytes32"
        }
      ],
      "payable": true,
      "stateMutability": "payable",
      "type": "function"
    }
  ],
  "bytecode": "0x608060405234801561001057600080fd5b50610803806100206000396000f300608060405260043610610062576000357c0100000000000000000000000000000000000000000000000000000000900463ffffffff16806310c4e8b01461006757806336ef737d146101d65780635db35acd14610201578063a53efa851461022e575b600080fd5b34801561007357600080fd5b5061007c61032d565b60405180806020018060200180602001858152602001848103845288818151815260200191508051906020019080838360005b838110156100ca5780820151818401526020810190506100af565b50505050905090810190601f1680156100f75780820380516001836020036101000a031916815260200191505b50848103835287818151815260200191508051906020019080838360005b83811015610130578082015181840152602081019050610115565b50505050905090810190601f16801561015d5780820380516001836020036101000a031916815260200191505b50848103825286818151815260200191508051906020019080838360005b8381101561019657808201518184015260208101905061017b565b50505050905090810190601f1680156101c35780820380516001836020036101000a031916815260200191505b5097505050505050505060405180910390f35b3480156101e257600080fd5b506101eb61051e565b6040518082815260200191505060405180910390f35b610209610524565b6040518083815260200182600019166000191681526020019250505060405180910390f35b34801561023a57600080fd5b5061032b600480360381019080803590602001908201803590602001908080601f0160208091040260200160405190810160405280939291908181526020018383808284378201915050505050509192919290803590602001908201803590602001908080601f0160208091040260200160405190810160405280939291908181526020018383808284378201915050505050509192919290803590602001908201803590602001908080601f01602080910402602001604051908101604052809392919081815260200183838082843782019150505050505091929192908035906020019092919050505061054b565b005b606080606060008060016002600354838054600181600116156101000203166002900480601f0160208091040260200160405190810160405280929190818152602001828054600181600116156101000203166002900480156103d15780601f106103a6576101008083540402835291602001916103d1565b820191906000526020600020905b8154815290600101906020018083116103b457829003601f168201915b50505050509350828054600181600116156101000203166002900480601f01602080910402602001604051908101604052809291908181526020018280546001816001161561010002031660029004801561046d5780601f106104425761010080835404028352916020019161046d565b820191906000526020600020905b81548152906001019060200180831161045057829003601f168201915b50505050509250818054600181600116156101000203166002900480601f0160208091040260200160405190810160405280929190818152602001828054600181600116156101000203166002900480156105095780601f106104de57610100808354040283529160200191610509565b820191906000526020600020905b8154815290600101906020018083116104ec57829003601f168201915b50505050509150935093509350935090919293565b60045481565b60008043600481905550600143034060058160001916905550600454600554915091509091565b8360009080519060200190610561929190610732565b508260019080519060200190610578929190610732565b50816002908051906020019061058f929190610732565b50806003819055503373ffffffffffffffffffffffffffffffffffffffff167f9ca10586aa2395fe3888dcaff5c92b3546ed752023b6ba4763c85868e71020e68585858560405180806020018060200180602001858152602001848103845288818151815260200191508051906020019080838360005b83811015610621578082015181840152602081019050610606565b50505050905090810190601f16801561064e5780820380516001836020036101000a031916815260200191505b50848103835287818151815260200191508051906020019080838360005b8381101561068757808201518184015260208101905061066c565b50505050905090810190601f1680156106b45780820380516001836020036101000a031916815260200191505b50848103825286818151815260200191508051906020019080838360005b838110156106ed5780820151818401526020810190506106d2565b50505050905090810190601f16801561071a5780820380516001836020036101000a031916815260200191505b5097505050505050505060405180910390a250505050565b828054600181600116156101000203166002900490600052602060002090601f016020900481019282601f1061077357805160ff19168380011785556107a1565b828001600101855582156107a1579182015b828111156107a0578251825591602001919060010190610785565b5b5090506107ae91906107b2565b5090565b6107d491905b808211156107d05760008160009055506001016107b8565b5090565b905600a165627a7a72305820b7931c4dd3be07646b6f2c0c3df2ecb792f4e763c6866f7cc1b970953e58984b0029",
  "source": "pragma solidity ^0.4.2;\n\ncontract Credit {\n\n  event createRecord(address indexed _address, string identity, string name, string category, uint price);\n\n  string a;\n  string b;\n  string c;\n  uint256 d;\n  uint public bn;\n  bytes32 hs;\n\n    function create(string identity, string name, string category, uint256 price) public\n  {\n      a = identity;\n      b = name;\n      c = category;\n      d = price;\n      emit createRecord(msg.sender, identity, name, category, price);\n  }\n\n    function all() constant public returns (string, string, string, uint){\n      return(a, b, c, d);\n  }\n    function setCurrentBlockNum() payable public returns(uint256,bytes32) {\n        bn = block.number;\n        hs = blockhash(block.number-1);\n        return (bn,hs);\n    }\n\n}\n",
  "sourcePath": "/Volumes/develop/playground/react/truffle/contracts/Credit.sol",
  "compiler": {
    "name": "solc",
    "version": "0.4.24+commit.e67f0147.Emscripten.clang"
  },
  "schemaVersion": "2.0.0",
  "updatedAt": "2018-06-06T08:36:54.503Z"
}